:100000000C9434000C9449000C9449000C94490061
:100010000C9449000C9449000C9449000C9449003C
:100020000C9449000C9449000C9449000C9449002C
:100030000C9449000C9449000C9449000C9449001C
:100040000C9449000C9449000C9449000C9449000C
:100050000C9449000C9449000C9449000C944900FC
:100060000C9449000C94490011241FBECFEFD8E036
:10007000DEBFCDBF11E0A0E0B1E0EAEAF8E002C0E7
:1000800005900D92A035B107D9F70E944B000C9452
:1000900053040C94000020E835E240E050E060E0BA
:1000A00070E080E090E00E947B008AE00E94AE0059
:1000B0008AE00E94AE0080E091E00E94B10060E41E
:1000C00072EE81E090E00E94C0008AE00E94AE00E3
:1000D00085E291E00E94B1008AE00E94AE00C0E09B
:1000E0008C2F0E94AE0087EA91E60197F1F700C0DD
:1000F0000000CF5FF5CF8F929F92AF92BF92CF92C9
:10010000DF92EF92FF920F931F93A22EB32EC42E75
:10011000D52EE62EF72E082F192F20E432E44FE0DB
:1001200050E060E070E080E090E00E940C01822EE0
:10013000932EA42EB52EC501B40161507109810919
:1001400091090E94FC001F910F91FF90EF90DF90AA
:10015000CF90BF90AF909F908F9008950E94020122
:100160000895CF93DF93EC018881882331F02196A5
:100170000E94020189918111FBCFDF91CF910895F7
:100180000F931F93CF93DF93CDB7DEB729970FB6A9
:10019000F894DEBF0FBECDBFFE01319629E0DF012E
:1001A0001D922A95E9F79F938F937F936F938CE429
:1001B00091E09F938F93FF93EF930E946901898150
:1001C0000FB6F894DEBF0FBECDBF882351F08E016D
:1001D0000E5F1F4F0E940201D8018D918D01811188
:1001E000F9CF29960FB6F894DEBF0FBECDBFDF91D1
:1001F000CF911F910F91089588E18093C100609382
:10020000C4000895E0ECF0E0908195FFFDCF80936D
:10021000C6000895689401C0E8948F929F92CF938E
:10022000DF930E941801DF91CF919F908F900895E6
:1002300088249924F401E401B0E49F93AA279A1535
:100240008B049C04ED05FE05CF05D007A10798F4AB
:10025000AD2FDC2FCF2FFE2FE92D982C892E982F34
:10026000872F762F652F542F432F322F2227B850F8
:1002700031F7BF9127C01B2EBF91BB27220F331F21
:10028000441F551F661F771F881F991F881C991CC4
:10029000EE1FFF1FCC1FDD1FAA1FBB1F8A149B046C
:1002A000EC05FD05CE05DF05A007B10748F08A186B
:1002B0009B08EC09FD09CE09DF09A00BB10B2160F9
:1002C0001A94E1F62EF49401AF01BE01CD01000CA9
:1002D0000895AEE0B0E0EFE6F1E00C942A040D8959
:1002E0001E8986E08C831A8309838FEF9FE79E83A4
:1002F0008D83AE01475E5F4F6F89788DCE01019689
:100300000E948B01EF81F885E00FF11F10822E967D
:10031000E4E00C944604ABE0B0E0E1E9F1E00C94D9
:100320001C046C017B018A01FC0117821682838107
:1003300081FFCCC1CE0101963C01F6019381F7010A
:1003400093FD859193FF81917F01882309F4BAC1C0
:10035000853239F493FD859193FF81917F01853238
:1003600029F4B60190E00E948203E7CF912C212C62
:10037000312CFFE1F315D8F08B3279F038F480326C
:1003800079F08332A1F4232D20611DC08D3261F0FC
:10039000803369F4232D216016C0832D8260382EAE
:1003A000E32DE4603E2E2AC0F32DF8601DC037FC1B
:1003B0002DC020ED280F2A3040F08E32B9F436FCE3
:1003C00081C1232D2064322E19C036FE06C08AE07A
:1003D000989E200D1124922E11C0EAE02E9E200D31
:1003E0001124222EF32DF0623F2E08C08C3621F40A
:1003F000832D8068382E02C0883641F4F70193FDC2
:10040000859193FF81917F018111B3CF982F9F7DBB
:100410009554933028F40C5F1F4F9FE399830DC0D0
:10042000833631F0833771F0833509F059C021C02C
:10043000F801808189830E5F1F4F88248394912C5B
:10044000530113C02801F2E04F0E511CF801A080A7
:10045000B18036FE03C0692D70E002C06FEF7FEF00
:10046000C5010E9477034C018201F32DFF773F2ED7
:1004700016C0280122E0420E511CF801A080B18074
:1004800036FE03C0692D70E002C06FEF7FEFC5013B
:100490000E946C034C01F32DF0683F2E820133FC67
:1004A0001BC0822D90E088169906B0F4B60180E258
:1004B00090E00E9482032A94F4CFF50137FC8591E5
:1004C00037FE81915F01B60190E00E948203211006
:1004D0002A9421E0821A91088114910471F7E8C0EE
:1004E000843611F0893641F5F80137FE07C0608186
:1004F0007181828193810C5F1F4F08C0608171817F
:10050000072E000C880B990B0E5F1F4FF32DFF7603
:100510003F2E97FF09C090958095709561957F4F0C
:100520008F4F9F4FF0683F2E2AE030E0A3010E94DA
:10053000BE03882E861845C0853731F4232D2F7EC3
:10054000B22E2AE030E025C0932D997FB92E8F3648
:10055000C1F018F4883579F0B5C0803719F08837C4
:1005600021F0B0C0E92FE061BE2EB4FE0DC0FB2D1E
:10057000F460BF2E09C034FE0AC0292F2660B22EB7
:1005800006C028E030E005C020E130E002C020E1F4
:1005900032E0F801B7FE07C06081718182819381EA
:1005A0000C5F1F4F06C06081718180E090E00E5F9C
:1005B0001F4FA3010E94BE03882E8618FB2DFF77D4
:1005C0003F2E36FE0DC0232D2E7FA22E891458F407
:1005D00034FE0BC032FC09C0832D8E7EA82E05C0D0
:1005E000B82CA32C03C0B82C01C0B92CA4FE0FC09A
:1005F000FE01E80DF11D8081803321F49A2D997E52
:10060000A92E09C0A2FE06C0B394B39404C08A2DDB
:10061000867809F0B394A3FC11C0A0FE06C0B21402
:1006200088F4280C922C9B180EC0B21460F4B6010A
:1006300080E290E00E948203B394F7CFB21418F4E2
:100640002B1802C0982C212CA4FE10C0B60180E308
:1006500090E00E948203A2FE17C0A1FC03C088E7BD
:1006600090E002C088E590E0B6010CC08A2D867843
:1006700059F0A1FE02C08BE201C080E2A7FC8DE22E
:10068000B60190E00E948203891438F4B60180E339
:1006900090E00E9482039A94F7CF8A94F301E80DC8
:1006A000F11D8081B60190E00E9482038110F5CF98
:1006B000222009F442CEB60180E290E00E9482033B
:1006C0002A94F6CFF6018681978102C08FEF9FEFC3
:1006D0002B96E2E10C943804FC01059061507040C7
:1006E0000110D8F7809590958E0F9F1F0895FC01FB
:1006F0006150704001900110D8F7809590958E0F51
:100700009F1F08950F931F93CF93DF93FB012381C6
:1007100021FD03C08FEF9FEF2CC022FF16C0468142
:100720005781248135814217530744F4A081B18158
:100730009D012F5F3F4F318320838C93268137812A
:100740002F5F3F4F3783268314C08B01EC01FB01E1
:100750000084F185E02D0995892BE1F6D8011696E4
:100760008D919C911797019617969C938E9316974F
:10077000CE01DF91CF911F910F910895FA01AA2721
:10078000283051F1203181F1E8946F936E7F6E5FD4
:100790007F4F8F4F9F4FAF4FB1E03ED0B4E03CD082
:1007A000670F781F891F9A1FA11D680F791F8A1F65
:1007B000911DA11D6A0F711D811D911DA11D20D0CC
:1007C00009F468943F912AE0269F11243019305D86
:1007D0003193DEF6CF010895462F4770405D419377
:1007E000B3E00FD0C9F7F6CF462F4F70405D4A33C4
:1007F00018F0495D31FD4052419302D0A9F7EACF8C
:10080000B4E0A6959795879577956795BA95C9F7BA
:1008100000976105710508959B01AC010A2E0694AD
:100820005795479537952795BA95C9F7620F731F66
:10083000841F951FA01D08952F923F924F925F92A3
:100840006F927F928F929F92AF92BF92CF92DF92E0
:10085000EF92FF920F931F93CF93DF93CDB7DEB745
:10086000CA1BDB0B0FB6F894DEBF0FBECDBF0994D9
:100870002A88398848885F846E847D848C849B8430
:10088000AA84B984C884DF80EE80FD800C811B813E
:10089000AA81B981CE0FD11D0FB6F894DEBF0FBE6D
:0A08A000CDBFED010895F894FFCFDD
:1008AA0044656D6F206F6E2073656E64696E672094
:1008BA0075696E7436345F7420696E2041534349FA
:1008CA00493A202000537461727420536177746F1F
:1008DA006F74682062792073656E64696E67206F31
:1008EA006E6520627974653A00256400256C75008E
:00000001FF
